:040000000200543274
:03000B000206FFEB
:100010000000E2FBEAF2802C0000E0FBEAF0802422
:10002000E6B50202EBF62200E2B50202EBF2220094
:10003000E0B50202EBF02230F6E0A88220F5D3EA28
:10004000C6F582228B822230F6E6A88220F5D9807E
:01005000CFE0
:1000AD00753901753A3A753B00753C00753D00E4B4
:1000BD00F53EF53FC201C202C203C204C2050200F1
:0100CD0051E1
:0300510002080D95
:1000CE007F0F00DFFD22D29722C29722D29622C244
:1000DE0096221200D41200DA1200CE1200D71200AD
:1000EE00CE1200DD0200CE1200D71200CE1200DAC0
:1000FE001200CE1200D40200CEAF827E00EF30E7A7
:10010E000DC007C0061200D4D006D007800BC00762
:10011E00C0061200D7D006D007C007C0061200CE08
:10012E001200DA1200CE1200DD1200CED006D00779
:10013E00EF2FFF0EBE080040C41200D41200CE12E4
:10014E0000DA1200CEA297B39200E433FFC007127A
:10015E0000DD1200CED0078F8222AF827E00C00754
:10016E00C0061200D4D006D0077D08EE2EFEC007C2
:10017E00C006C0051200DA1200CED005D006D00798
:10018E00309703430601C007C006C0051200DD12FA
:10019E0000CED005D006D007DDD1EF6009C0061223
:1001AE0000D7D0068007C0061200D4D006C00612B3
:1001BE0000CE1200DA1200CE1200DD1200CE1200B6
:1001CE00D4D0068E8222AF828F0653060FEFC45410
:1001DE000F75F00AA42EF58222AF828F0675F00AF3
:1001EE00EE84AEF075F00AEF84C454F04EF5822220
:1001FE00AF82C0071200E07582D0120107E582D0EF
:10020E000770071200F5758200228F82120107E532
:10021E008270071200F57582002285228212010774
:10022E00E58270071200F5758200221200F57582C4
:10023E000122AF82C0071200E07582D0120107E5DD
:10024E0082D00770071200F5758200228F8212018C
:10025E0007E58270071200F5758200221200E07524
:10026E0082D1120107E58270071200F57582002215
:10027E00AD23AE24AF25758200C007C006C005129F
:10028E000168AC82D005D006D0078D828E838FF0A8
:10029E00EC12090B1200F5758201227523267524C6
:1002AE0000752540758200120240E582700122E53C
:1002BE0026FF30E70E747F5FF526852622758200B5
:1002CE000201FE22AD82AE83AFF07523307524009D
:1002DE00752540758200C007C006C005120240E5B4
:1002EE0082D005D006D0077003F5822275233175B2
:1002FE002400752540758201C007C006C005120294
:10030E0040E582D005D006D0077003F58222752312
:10031E0032752400752540758202C007C006C005DF
:10032E00120240E582D005D006D0077003F5822276
:10033E0053307FAA2AAB2BAC2C853082C007C00667
:10034E00C005C004C003C0021201D4A982D002D0DD
:10035E0003D0048A828B838CF0E912090B85273334
:10036E00852834852935E531547FF582C004C003D4
:10037E00C0021201D4A982D002D003D004D005D07D
:10038E0006D0078533828534838535F0E912090B53
:10039E008A828B838CF012092624C4500A8A828B9F
:1003AE00838CF0E412090B8533828534838535F016
:1003BE0012092624C4500D8533828534838535F089
:1003CE00E412090BE532FC30E65EA92DAA2EAB2F06
:1003DE00EC30E50478018002780089828A838BF004
:1003EE00E812090BE532541FF582C007C006C0059E
:1003FE001201D4AB82D005D006D0078D828E838FAA
:10040E00F0EB12090BBB010040108D828E838FF032
:10041E0012092624F340030204D28D828E838FF0BC
:10042E00740C12090B0204D2743F5CF582C007C033
:10043E0006C0051201D4AC82D005D006D007EC243C
:10044E00E850027C00EC701D8D828E838FF0740C50
:10045E0012090BA92DAA2EAB2F89828A838BF0E469
:10046E0012090B805FBC0C00501C8D828E838FF0A6
:10047E00EC12090BA92DAA2EAB2F89828A838BF041
:10048E00E412090B803EBC0C1E8D828E838FF0749D
:10049E000C12090BA92DAA2EAB2F89828A838BF001
:1004AE00740112090B801DEC24F48D828E838FF063
:1004BE0012090BAD2DAE2EAF2F8D828E838FF07461
:1004CE000112090B75820122AF82853782C0071295
:1004DE0001E7E582547FFE853682C0061201E7E50C
:1004EE0082D006D007547FFD8F82C006C005120150
:1004FE00E7E582D005D006541F4440FFE53860037F
:10050E00430720C007C006C0051200E07582D01256
:10051E000107E582D005D006D00770071200F575E9
:10052E00820022758200C007C006C005120107E5D1
:10053E0082D005D006D00770071200F57582002212
:10054E008E82C007C005120107E582D005D0077064
:10055E00071200F5758200228D82C007120107E591
:10056E0082D00770071200F5758200228F82120169
:10057E0007E58270071200F5758200221200F575EC
:10058E00820122740BB5390F75390CE53CB40100AC
:10059E009206E433F53C22740CB539047539012208
:1005AE00E53904F53922740CB5390F75390BE53C74
:1005BE00B401009207E433F53C227401B539047599
:1005CE00390C22E53914F53922AF8274015FB4017A
:1005DE00009208E43324FF928074025FB40100920B
:1005EE0008E43324FF928174045FB401009208E49E
:1005FE003324FF9282530708EFB401009208E433CC
:10060E0024FF928322AF8274015FB401009209E449
:10061E003324FF929074025FB401009209E43324F4
:10062E00FF929174045FB401009209E43324FF92A7
:10063E009274085FB401009209E43324FF9293741C
:10064E00105FB401009209E43324FF929453072003
:10065E00EFB401009209E43324FF929522AF827425
:10066E00015FB40100920AE43324FF92A074025F8A
:10067E00B40100920AE43324FF92A174045FB40122
:10068E0000920AE43324FF92A274085FB401009230
:10069E000AE43324FF92A374105FB40100920AE4BB
:1006AE003324FF92A4530720EFB40100920AE433DF
:1006BE0024FF92A522E53CB40100B3920BE433244F
:1006CE00FF92847401B53C0474018001E4B401000E
:1006DE00920BE43324FF928522E539540FF58212F2
:1006EE0005D7853A82120613853B8212066B0206E7
:1006FE00C3C0E0C007C006C0D075D000758CFC75B5
:10070E008A187401253EFEE4353FFF8E3E8F3FC3AF
:10071E00EE94E8EF94034007E4F53EF53FD202D0A5
:10072E00D0D006D007D0E0327401B53D0512059148
:10073E00802C7402B53D1274C5253A4007E53A0483
:10074E00F53A801A753A0080157403B53D1074C5DC
:10075E00253B4007E53B04F53B8003753B00020655
:10076E00E77401B53D051205B480287402B53D103D
:10077E00E53A6007E53A14F53A8018753A3B80136E
:10078E007403B53D0EE53B6007E53B14F53B800376
:10079E00753B3B0206E7A2B0B3920CA2B1B3920D29
:1007AE00A2B2B3920E920F200E23300520E53D70BB
:1007BE0005753D0180177401B53D05753D02800D2F
:1007CE007402B53D05753D038003753D00300C0682
:1007DE00200303120736300D0620040312076FA202
:1007EE000C9203A20D9204A20F92052274F0558969
:1007FE004401F589758CFC758A18D2A9D28C2275A4
:10080E0080FF7590FF75A0FF75B0FFD296D297123C
:10081E0007FAD2AF1202A975274175280075294033
:10082E00752A42752B00752C40752D43752E00755B
:10083E002F4090004075F0401202D2E58260108584
:10084E00403985413A85423B85433CD2018002C204
:10085E00011206E7AF3DA2B0B39203A2B1B3920468
:10086E00A2B2B39205100202806BE53D70673001B3
:10087E003A752745752800752940752A46752B004F
:10088E00752C40752D47752E00752F4090004475C0
:10089E00F040C0071202D2E582D00760318544399C
:1008AE0085453A85463B85473C8023E53B04FE8ED5
:1008BE003BBE3C004018753B00E53A04FE8E3ABE46
:1008CE003C00400A753A00C007120591D007C007D8
:1008DE001206E7D007C0071207A4D007EFB53D02F6
:1008EE008016E53D701230010F853A36853B37850F
:0D08FE003C388539821204D6AF3D020873E4
:06008300E478FFF6D8FD51
:100061007900E94400601B7A00900946780175A087
:1000710000E493F2A308B8000205A0D9F4DAF275FE
:02008100A0FFDE
:10090B0020F71130F6138883A88220F509F6A88307
:0B091B007583002280FEF280F5F022C0
:100089007800E84400600A790175A000E4F309D812
:10009900FC7800E84400600C7900900001E4F0A3CA
:0400A900D8FCD9FAAC
:0D005400758147120942E5826003020051E8
:1009260020F71430F6148883A88220F507E6A883FA
:1009360075830022E280F7E49322E022758200228A
:00000001FF
